:020000040000FA
:0600000058EF15F012009C
:0600080004EF08F01200F5
:060018000CEF08F01200DD
:0610000058EF15F012008C
:021006001200D6
:0610080040EF10F01200A1
:02100E000000E0
:081010000000040000000000D4
:061018008BEF10F0120046
:02101E000100CF
:0C1020000E100000AA0000000A000000F2
:04102C00D9CFE6FF33
:10103000E1CFD9FFE6520F015F6B626A160E616E57
:101040009F0E5B6F7B0E606E648C649C5C6B000E0D
:10105000E66EE66AE66A540EE66E0F0EE66E3EEC4B
:1010600015F00B6E050EE15E0B50DF6ADF500B6E64
:101070000C6A080E0B5C000E0C5810E2DF50040DD9
:10108000F3CFE9FFF4CFEAFF000EE926020EEA22D1
:10109000EE6AEE6AEE6AEE6ADF2AE8D70F01160EF4
:1010A000536F62A60CD0030EE66E620EE66E0F0E54
:1010B000E66E0CEC10F0E552E552E552F2D7000175
:1010C000736B786B796B7A6B6498080E6B6F020E9A
:1010D0006C6F616B606BE552E552E7CFD9FF120090
:1010E000D9CFE6FFE1CFD9FFE6520001600507E165
:1010F00064BA05D0626A60806088020E606F6250D8
:10110000040B0FE06050040B0CE0020EE66E620E62
:10111000E66E0F0EE66E0CEC10F0E552E552E5526D
:10112000E8D864B271D06250010B1BE06050010B33
:1011300018E07CDF0001040E606F0201200E026FD8
:10114000020E036F080E016F006B8C0E0013E66A2F
:10115000620EE66E0F0EE66E0CEC10F0E552E552F4
:10116000E5526250100B0FE06050100B0CE0A5D858
:10117000040EE66E620EE66E0F0EE66E0CEC10F0DC
:10118000E552E552E5526250400B1DE06050400BC5
:101190001AE0010EE66EE66A000EE66EE66A020EE0
:1011A000E66EE66AC6EC13F00B6E060EE15E0B50BF
:1011B000060EE66E620EE66E0F0EE66E0CEC10F09A
:1011C000E552E552E5526250200B04E06050200BDE
:1011D00001E04FD86250020B13E06050020B10E0A8
:1011E000010EE66EE66A000EE66EE66AE668E668FE
:1011F000C6EC13F00B6E060EE15E0B500F015F6B39
:10120000040E0001605D02E2A1942ED060A62BD0F6
:10121000DF6A040EDF5C27E262A625D063CF80F090
:10122000030EE66E620EE66E0F0EE66E0CEC10F02C
:10123000E552E552E552780E0001801502E178D8BA
:1012400010D0000EE66EE66A800EE66E000EE66EC8
:10125000010EE66EE66AC6EC13F00B6E060EE15E5A
:101260000B50DF2AD6D7A194E552E552E7CFD9FF3C
:1012700012000F0153A115D063C0E9FF64C0EAFF5B
:10128000EF5080080DE16BC0E9FF6CC0EAFFEF5042
:10129000840806E163C0E9FF64C0EAFF8C0EEF6ECC
:1012A0005391050EE66E620EE66E0F0EE66E0CECC6
:1012B00010F0E552E552E55212006084040EE66E2D
:1012C000620EE66E0F0EE66E0CEC10F0E552E55283
:1012D000E5526482000EE66EE66AE66EE66A040E89
:1012E000E66EE66AC6EC13F00B6E060EE15E0B507E
:1012F0001200000EE66EE66AE66EE66A030EE66E21
:10130000E66AC6EC13F00B6E060EE15E0B506492BB
:10131000609462A40CD0020EE66E620EE66E0F0EB2
:10132000E66E0CEC10F0E552E552E552F2D71200F1
:10133000D9CFE6FFE1CFD9FFE652FD0E00018015BF
:101340005AE17E0E8015E8407F0B040DF3CF63F069
:10135000F4CF64F0000E6327020E642363C065F0CF
:1013600064C066F0657563C0E9FF64C0EAFFEF50D2
:101370003C0BE842E8420D083CE163C0E9FF64C071
:10138000EAFF020EE926000EEA22EECF0BF0EFCFC5
:101390000CF0280E0B182BE1020E0C1828E163C08C
:1013A000E9FF64C0EAFF020EE926000EEA22200EE1
:1013B000EE6E020EED6EDF6ADF500B6E0C6A080EE9
:1013C0000B5C000E0C5813E2DF50EA6A280FE96E3E
:1013D000020EEA22EF50E66EDF50EA6A200FE96E55
:1013E000020EEA22E552E750EF6EDF2AE5D70DD86C
:1013F00007D02ED805D0FD0E8015040801E14ED887
:10140000E552E552E7CFD9FF12006BC0E9FF6CC08F
:10141000EAFFEF50800B05E06BC0E9FF6CC0EAFF0C
:10142000EF6A00016F6B706B746B756B736BB5D883
:10143000000EE66EE66AE66EE66A170EE66EE66A8D
:10144000C6EC13F00B6E060EE15E0B5063EF0CF072
:10145000020E0001705D02E1BEEF0DF06CD80001DC
:1014600081511AE165C0E9FF66C0EAFFEE52080E3D
:10147000EF6E65C0E9FF66C0EAFF020EE926000EC6
:10148000EA22200EEE6E020EED6E65C0E9FF66C028
:10149000EAFF8C0EEF6E1200816B1200D9CFE6FFCF
:1014A000E1CFD9FFE6526BC0E9FF6CC0EAFFEF5015
:1014B000400B01E0010EDF6E00016B75080E605DF0
:1014C0000CE122C25CFF0F015C51000803E2000145
:1014D000100E02D00001040E606F700526E16BC093
:1014E000E9FF6CC0EAFF020EE926000EEA22280E90
:1014F000EE6E020EED6EB9DA020E00016F5D06E1CE
:101500006BC0E9FF6CC0EAFF840E0DD0DF5006E12E
:101510006BC0E9FF6CC0EAFFC80E05D06BC0E9FFE5
:101520006CC0EAFF880EEF6E01D005D8E552E55297
:10153000E7CFD9FF1200D9CFE6FFE1CFD9FF020EE6
:10154000E1260001706B6BC0E9FF6CC0EAFFEF6A37
:10155000040E6B190B6E6CC00CF0DE6E6CC0DDFF00
:10156000DECFE9FFDDCFEAFFEF6A78AF0CD07B5129
:101570007C1107E005D07CC0FAFF00017B51F96EB9
:10158000FADF0001789F020EE15C02E2E16AE552B7
:10159000E16EE552E7CFD9FF120002012051600B46
:1015A000E842E842E842E842E842000901E012006D
:1015B00021510C0A50E00B0A3FE00C0A31E0010A0D
:1015C00022E00B0A1EE0020A1CE0030A18E0080AE7
:1015D00010E0010A0CE00F0A08E0030A01E0120023
:1015E0000001738F080E606F1200B2EF0BF05BEF1B
:1015F0000EF00001610E716F000E726F0CD009EFDA
:101600000CF02CEF0BF024510001716F726B620E25
:101610007127000E72237381010E746F738F120095
:101620000001738F02012451EA6A620FE96E000E15
:10163000EA2222C2EFFF1200000EE66EE66AE66EB4
:10164000E66A160EE66EE66AC6EC13F00B6E060E40
:10165000E15E0B5012001200D9CFE6FFE1CFD9FFB7
:10166000040EE1260201220510E120511F0B0009A2
:101670000CE10001738F030E0201215D04E1000102
:10168000010E7F6F02D000017F6B0201225160E1E9
:1016900020511F0B02085CE124510F0B000958E098
:1016A0000001738F020124BF0BD024510F0BE96E90
:1016B000EA6AD890E936EA36670EE926000E0AD0C3
:1016C00024510F0BE96EEA6AD890E936EA366B0EC0
:1016D000E926000EEA22EECFDEFFEDCFDDFF030E9E
:1016E000215D06E1DECFE9FFDDCFEAFF840E2FD0DA
:1016F00024510F0B0C6A530F0B6E0F0E0C22020EAF
:101700000BC0DBFF030E0CC0DBFF020EDBCFE9FFDB
:10171000030EDBCFEAFFEE90ED5224AF0CD0DECF0C
:10172000E9FFDDCFEAFFEF6ADF74DECFE9FFDDCF4F
:10173000EAFF400E0CD0DECFE9FFDDCFEAFF880ED6
:10174000EF6EDF74DECFE9FFDDCFEAFFC80EEF6E8C
:10175000040EE15C02E2E16AE552E16EE552E7CF98
:10176000D9FF1200800E0201205D52E10001C00E7F
:10177000736F02012351030A29E0010A09E0030AF9
:1017800045E10001240E716F280E726F120E38D0E1
:101790002251F66EF76AD890F636F736040EF62622
:1017A000290EF7220900F5CF71F00A00F5CF72F08B
:1017B000020E0001F76A7125F66E7251F7220900D8
:1017C000F5CF74F00A00F5CF75F01200030E225D1C
:1017D0001AE22251F66EF76AD890F636F736060E00
:1017E000F626290EF7220900F5CF71F00A00F5CF91
:1017F00072F071C0F6FF72C0F7FF0800F5500001EB
:10180000746F756B12000001736B12000001736B33
:101810001200D9CFE6FFE1CFD9FF020EE126020187
:10182000286B296B20511F0B020A11E0030A0CE000
:10183000010A35E10001738F0201288100017F0553
:101840002EE1020128832BD00001738F28D00001E4
:10185000738F020124BF0BD024510F0BE96EEA6A8B
:10186000D890E936EA36670EE926000E0AD02451F0
:101870000F0BE96EEA6AD890E936EA366B0EE92674
:10188000000EEA22EECFDEFFEDCFDDFFDECFE9FF77
:10189000DDCFEAFFEF50040B02E0010E286F0001DC
:1018A00073AF07D0280E716F020E726F7381020E34
:1018B000746F020EE15C02E2E16AE552E16EE5520C
:1018C000E7CFD9FF12006498000173BF47D078AF0B
:1018D00026D0020E706F6BC0E9FF6CC0EAFFEE52BB
:1018E000EF6A6BC0E9FF6CC0EAFFC80EEF6E65C01F
:1018F000E9FF66C0EAFFEE52080EEF6E65C0E9FF31
:1019000066C0EAFF020EE926000EEA22280EEE6EFD
:10191000020EED6E65C0E9FF66C0EAFF7AD065C0D1
:10192000E9FF66C0EAFFEE52080EEF6E65C0E9FF00
:1019300066C0EAFF020EE926000EEA22200EEE6ED5
:10194000020EED6E65C0E9FF66C0EAFF8C0EEF6E19
:101950006BC0E9FF6CC0EAFF840E5CD078BF84D016
:10196000020120AF59D0000174510201265D00012F
:1019700075510201275904E226C274F027C275F09E
:1019800074D80001010E706F65C0E9FF66C0EAFF00
:10199000EE52080EEF6E65C0E9FF66C0EAFF020E68
:1019A000E926000EEA22200EEE6E020EED6E65C0F4
:1019B000E9FF66C0EAFF800EEF6E816B63C0E9FF4E
:1019C00064C0EAFFEE52080EEF6E63C0E9FF64C028
:1019D000EAFF020EE926000EEA22200EEE6E020E4B
:1019E000ED6E63C0E9FF64C0EAFF840EEF6E010E86
:1019F000816F6BC0E9FF6CC0EAFF020EE926000EA2
:101A0000EA22280EEE6E020EED6E6BC0E9FF6CC08E
:101A1000EAFFC80EEF6E12000001020E706F6BC07D
:101A2000E9FF6CC0EAFFEE52EF6A6BC0E9FF6CC0E1
:101A3000EAFFC80EEF6E65C0E9FF66C0EAFFEE522E
:101A4000080EEF6E65C0E9FF66C0EAFF020EE926E8
:101A5000000EEA22280EEE6E020EED6E65C0E9FF62
:101A600066C0EAFFC80EEF6E1200D9CFE6FFE1CFE5
:101A7000D9FF020EE1260001080E745D000E7559B3
:101A80000DE274C0DEFF75C0DDFF6F5102E1010E93
:101A900003D06F0506E1020E6F6F03D0080EDE6EF5
:101AA000DD6A6BC0E9FF6CC0EAFFEF926BC0E9FF33
:101AB0006CC0EAFFEF906BC0E9FF6CC0EAFF010E5B
:101AC000DB50EF126BC0E9FF6CC0EAFFEE52DFCFD4
:101AD000EFFF000EDB50745F010EDB50755B280ECC
:101AE0007D6F020E7E6F73B120D0D9CFE9FFDACFC0
:101AF000EAFFEE50ED1038E071C0F6FF72C0F7FF5C
:101B0000712B000E72230800F550E66E7DC0E9FFD0
:101B10007EC0EAFF7D2B000E7E23E552E750EF6E7C
:101B2000DF06010EE2E2DB06E0D7D9CFE9FFDACF2C
:101B3000EAFFEE50ED1018E071C0E9FF72C0EAFF55
:101B4000712B000E7223EF50E66E7DC0E9FF7EC060
:101B5000EAFF7D2B000E7E23E552E750EF6EDF0695
:101B6000010EE3E2DB06E1D7020EE15C02E2E16A8C
:101B7000E552E16EE552E7CFD9FF1200D9CFE6FF7B
:101B8000E1CFD9FF020EE12663C0E9FF64C0EAFF9E
:101B9000EE52EFCFDFFFDFCF0BF00B500001795D8E
:101BA000000E7A5903E279C0DFFF09D0DF500B6ED7
:101BB0000C6AE850795D796F0C507A597A6F010E92
:101BC000DB6ADF50F36E010EDBCFF4FFF350F45C01
:101BD00016E2010EDB50EA6A280FE96E020EEA22D5
:101BE000EF50E66E76C0E9FF77C0EAFF762B000E75
:101BF0007723E552E750EF6E010EDB2AE2D7000EA5
:101C0000D8807955000E7A5527E265C0E9FF66C095
:101C1000EAFFEE52080EEF6E65C0E9FF66C0EAFF0C
:101C2000020EE926000EEA22280EEE6E020EED6E7E
:101C300063C0E9FF64C0EAFFEF50400B06E165C0F6
:101C4000E9FF66C0EAFFC80E05D065C0E9FF66C0BF
:101C5000EAFF880EEF6E25D065C0E9FF66C0EAFF97
:101C6000EE52080EEF6E65C0E9FF66C0EAFF020E95
:101C7000E926000EEA22200EEE6E020EED6E65C021
:101C8000E9FF66C0EAFF840EEF6E7B517C1107E02E
:101C900005D07CC0FAFF00017B51F96EFADF00012C
:101CA000789F020EE15C02E2E16AE552E16EE552E4
:101CB000E7CFD9FF12000001738F000EE66EE66ACF
:101CC000E66A540EE66E0F0EE66E3EEC15F00B6EF5
:101CD000050EE15E0B50010EE66EE66AE66A620EE4
:101CE000E66E000EE66E3EEC15F00B6E050EE15E44
:101CF0000B5022C261F00201225104E10001100EDA
:101D0000606F12000001200E606F000EE66EE66A42
:101D1000E66EE66A150EE66EE66AC6EC13F00B6E2A
:101D2000060EE15E0B501200D9CFE6FFE1CFD9FFDE
:101D3000020EE126000EDE6E020EDD6EFD0EDB50A1
:101D4000E8240D6EFE0EDB50040DF3500D24040D3F
:101D5000F3500B6E0C6A020E0F0B05E0D8900C329C
:101D60000B32E806FBE1D8900B360C36D8900B36D8
:101D70000C36D9CFE9FFDACFEAFF0B50EE260C5034
:101D8000ED22DECFE9FFDDCFEAFFEF9EFD0EDB5057
:101D90000AE1FE0EEA6ADB34FE0BEA36E96E670EF4
:101DA000E926000E09D0FE0EEA6ADB34FE0BEA36A5
:101DB000E96E6B0EE926000EEA22DECFEEFFDDCFE4
:101DC000EDFFDECFE9FFDDCFEAFFEF9CDECFE9FFDD
:101DD000DDCFEAFF040EE926000EEA22EF8C020EA8
:101DE000E15C02E2E16AE552E16EE552E7CFD9FF3C
:101DF0001200D9CFE6FFE1CFD9FF020EE126FE0E99
:101E0000DB500C6A530F0B6E0F0E0C220BC0DEFF63
:101E10000CC0DDFFDECFE9FFDDCFEAFFFD0EDBCF3B
:101E2000EFFFDBA407D0E66AFE0EDBCFE6FF7CDF28
:101E3000E552E552FD0EDBA208D0010EE66EFE0E65
:101E4000DBCFE6FF71DFE552E552020EE15C02E214
:101E5000E16AE552E16EE552E7CFD9FF1200D9CF32
:101E6000E6FFE1CFD9FF020EE126FE0EDB5020E1B6
:101E700065C0E9FF66C0EAFFEE52080EEF6E65C06E
:101E8000E9FF66C0EAFF020EE926000EEA22200EF4
:101E9000EE6E020EED6E65C0E9FF66C0EAFF8C0EC5
:101EA000EF6E6BC0E9FF6CC0EAFF840EEF6E3BD0B3
:101EB000FD0EDB50E8240D6EFE0EDB50040DF350DA
:101EC0000D24040DF3CF0BF0F4CF0CF0000E0B2615
:101ED000020E0C220BC0DEFF0CC0DDFF840EDECF35
:101EE000E9FFDDCFEAFFE850EF12FD0EDB50E824FA
:101EF0000D6EFE0EDB50040DF3500D24010F040D8A
:101F0000F3CF0BF0F4CF0CF0000E0B26020E0C22D8
:101F10000BC0DEFF0CC0DDFF840EDECFE9FFDDCF9E
:101F2000EAFFE850EF12020EE15C02E2E16AE552DC
:101F3000E16EE552E7CFD9FF1200D9CFE6FFE1CF3E
:101F4000D9FF020EE126FD0EDB500AE0FE0EEA6A22
:101F5000DB34FE0BEA36E96E6B0EE926000E09D083
:101F6000FE0EEA6ADB34FE0BEA36E96E670EE926FE
:101F7000000EEA22EECFDEFFEDCFDDFFDECFE9FF80
:101F8000DDCFEAFF020EE926000EEA22FB0EDBCFD0
:101F9000EEFFFC0EDBCFEDFFDECFE9FFDDCFEAFF8A
:101FA000EE52FA0EDBCFEFFF400EDECFE9FFDDCFC2
:101FB000EAFFE850EF16880EDECFE9FFDDCFEAFF3B
:101FC000E850EF12FD0EDB500AE0FE0EEA6ADB3449
:101FD000FE0BEA36E96E6B0EE926000E09D0FE0E06
:101FE000EA6ADB34FE0BEA36E96E670EE926000E7C
:101FF000EA22EF74DECF0BF0DDCF0CF00BC0F3FF65
:102000000CC0F4FF020EE15C02E2E16AE552E16E0F
:10201000E552E7CFD9FF1200D9CFE6FFE1CFD9FFD4
:10202000010EF36EFC0EDB5004E0D890F336E806A8
:10203000FCE1F31C0B6EFD0EDBCFE9FFFE0EDBCFE8
:10204000EAFF0B50EF16E552E7CFD9FF120012005E
:102050000001605114E1646A606A160E616E0F013E
:102060009F0E5B6F7B0E606ED08EA284A084F28E7A
:1020700064B602D06486FCD70001010E606F1200C6
:10208000DACFE4FFE2CFDAFFE9CFE4FFEACFE4FF03
:10209000F6CFE4FFF7CFE4FFF5CFE4FFF3CFE4FFA3
:1020A000F4CFE4FFFACFE4FF00EE00F00B0EE804FB
:1020B00003E3EECFE4FFFBD700EE0BF0030EE804E2
:1020C00003E3EECFE4FFFBD7E65270EC08F0E552F5
:1020D00000EE0DF0030EE80403E3E5CFEDFFFBD7C0
:1020E00000EE0AF00B0EE80403E3E5CFEDFFFBD7AB
:1020F000E5CFFAFFE5CFF4FFE5CFF3FFE5CFF5FF3E
:10210000E5CFF7FFE5CFF6FFE5CFEAFFE5CFE9FF43
:10211000E5CFDAFF1100D8CFE4FFE0CFE4FFE46EB3
:10212000DACFE4FFE652E552E5CFDAFFE550E5CF3E
:10213000E0FFE5CFD8FF1000D9CFE6FFE1CFD9FF10
:10214000E6527F6A7E6A938A939E240EAC6E900E4E
:10215000AB6E710EAF6E020EB06E080EB86EAE5062
:10216000DF6EE552E552E7CFD9FF1200D9CFE6FF87
:10217000E1CFD9FF500E8A12FE0EDB50AD6EE55254
:10218000E7CFD9FF1200D9CFE6FFE1CFD9FFE65262
:10219000ABA205D0AB98AE50DF6EAB8802D0AE508C
:1021A000DF6EDF50E552E552E7CFD9FF120004D8C9
:1021B00028EC10F01FD8FED70F0EC11202D816EF70
:1021C00008F0BADFF00E8B1694160001010E9D6F19
:1021D0008050080B01E0010E866F8050080B01E073
:1021E000010E876F986B996B9A6B9B6BAF0E8A167B
:1021F0009316120000019D0505E158DA0001AA2B93
:10220000000EAB23200E0001605D05E36450020B5D
:1022100001E0120001D8120000019851991102E169
:10222000000E08D098C0E9FF99C0EAFFEF50800B7C
:1022300001E0010E000901E0EDD19EAACFD1A3DF9C
:102240000001AC6FAF6BB16BB1C0B0F0E8507F0A6A
:1022500001E1B5D11E0A01E1ADD1030A01E1AAD124
:10226000010A01E1A7D1070A01E1A4D1010A01E1B4
:10227000A1D1030A01E19ED1010A01E19BD10F0A1C
:1022800001E198D1010A01E195D1030A01E192D15E
:10229000010A01E18FD1070A01E18CD1010A01E1B4
:1022A00089D1030A01E186D1010A01E183D11F0A24
:1022B00001E180D1010A01E17DD1030A01E17AD176
:1022C000010A01E177D1070A01E174D1010A01E1B4
:1022D00071D1030A01E16ED1010A01E16BD10F0A4C
:1022E00001E168D1010A01E165D1030A01E162D18E
:1022F0001A0A01E15DD11E0A01E158D1210A01E16A
:1023000051D1010A01E14AD1020A01E145D1200A75
:1023100001E140D1210A01E13BD1200A01E136D19E
:10232000260A01E131D1200A01E12CD13A0A01E16A
:1023300026D1030A01E123D1010A01E120D1070AD4
:1023400001E11DD1010A01E11AD1030A01E117D10E
:10235000010A01E114D10F0A01E111D1010A01E1E1
:102360000ED1030A01E10BD1010A01E108D1070AEC
:1023700001E105D1010A01E102D1030A01E1FFD027
:10238000010A01E1FCD01F0A01E1F9D0010A01E1D3
:10239000F6D0030A01E1F3D0010A01E1F0D0070A07
:1023A00001E1EDD0010A01E1EAD0030A01E1E7D041
:1023B000010A01E1E4D00F0A01E1E1D0010A01E1E3
:1023C000DED0030A01E1DBD0610A01E1D6D0010AC7
:1023D00001E1D1D00B0A01E1CCD0030A01E1C9D05F
:1023E000010A01E1C6D0070A01E1C3D0010A01E1F7
:1023F000C0D0030A01E1BDD0010A01E1BAD00F0A41
:1024000001E1B7D0010A01E1B4D0790A01E1ADD010
:102410006F0A01E1A8D0100A01E1A3D00F0A01E17F
:102420009ED01D0A01E1C0D0030A01E196D0100A36
:1024300001E191D0140A01E18AD0060A01E185D0B8
:10244000100A01E180D0010A01E17BD0160A01E106
:1024500076D0020A71E0010A6BE00E0A65E0030A19
:102460005FE0010A59E0070A53E0040A4FE0050A59
:102470004BE0030A45E03A0A40E0010A3CE0030A67
:1024800038E0010A34E00F0A30E0010A2CE0030AC8
:1024900028E0010A24E0070A20E0010A1CE0030A00
:1024A00018E01E0A13E0010A0FE0030A0BE0070A16
:1024B00009E0030A05E0010A01E084D02A0E83D076
:1024C0002B0E81D0280E7FD0390E7DD0050EAF6F38
:1024D00077D03A0E78D03B0E76D03E0E74D03F0EB9
:1024E00072D0420E70D0430E6ED0500E6CD0510E92
:1024F0006AD04F0E68D0520E66D0AF6B290E63D0F3
:10250000020EAF6F1E0E5FD0020EAF6F340E5BD0A7
:10251000020EAF6F200E57D0020EAF6F210E53D0B8
:10252000020EAF6F220E4FD0020EAF6F240E4BD0B3
:10253000020EAF6F260E47D0020EAF6F10D0020E04
:10254000AF6F2E0E40D0020EAF6F360E3CD0020E93
:10255000AF6F250E38D0020EAF6F370E34D0270E76
:1025600032D0020EAF6F380E2ED0020EAF6F1F0E9C
:102570002AD0130E22D0020EAF6F330E24D0AF6BD1
:102580003D0E1BD0020EAF6F2F0E1DD0020EAF6F8F
:10259000300E19D0020EAF6F310E15D0020EAF6F94
:1025A000230E11D0020EAF6F2D0E0DD0020EAF6FA5
:1025B000350E09D0020EAF6F5D0EAC5D04D0AF6B6F
:1025C0004C0E01D02C0EAE6FAFC031F20201326B57
:1025D000336FB0C034F2B1C035F206D00201316BB6
:1025E000326B336B346B356B366B376B386B080E75
:1025F000E66E310EE66E020EE66E010EE66EE66ED9
:102600009DEC0FF00B6E050EE15E0B50F3CF98F0D2
:10261000F4CF99F000019A519B1102E1000E08D00D
:102620009AC0E9FF9BC0EAFFEF50800B01E0010E6A
:1026300000091DE1020130A103D08B808B8202D002
:102640008B908B9200019D6B010EE66E300EE66E54
:10265000020EE66EE66A010EE66E9DEC0FF00B6E62
:10266000050EE15E0B50F3CF9AF0F4CF9BF0120011
:102670008050080B01E0010E0001865D07E08050EC
:10268000080B01E0010E866F80A6010C000C805043
:10269000080B01E0010E0001875D07E08050080B88
:1026A00001E0010E876F80A6010C000C0001B25101
:1026B000B31104E1100EB26F270EB36FB207000E14
:1026C000B35B64A207D0B251B3112EE18B708BB013
:1026D00013D027D00001605102E18B9022D0600519
:1026E00002E18B8009D0020E605D02E18B8019D07F
:1026F000040E605D03E18B908B821200100E605D12
:1027000006E10001B251B3110FE18B700AD0200E27
:10271000605D0AE10001B251B31106E18B708BA03C
:1027200002D08B9212008B82120012001200120053
:10273000120086EF14F012001E0EE66E010EE66E19
:10274000F9EC0EF0E552E552010EE66E300EE66E43
:10275000020EE66EE66A010EE66E9DEC0FF00B6E61
:10276000050EE15E0B50F3CF9AF0F4CF9BF0120010
:1027700064840001080E9E6F070E9F6F9E07000E77
:102780009F5B9E519F11FAE164941200D9CFE6FF3E
:10279000E1CFD9FFFD0EDBCF06F0FE0EDBCF07F059
:1027A000010E061801E1075033E0E868061802E15F
:1027B000E86807182BE0030E061801E1075024E033
:1027C000040E061801E107501DE0020E061801E193
:1027D000075016E0170E061801E107500FE0160E1D
:1027E000061801E1075008E0150E061801E1075030
:1027F00001E010D0A1DF0FD09EDF0DD09ADF0BD00B
:1028000096DF09D092DF07D091DF05D091DF03D0AA
:10281000000001D000D0010E00D0E552E7CFD9FF73
:042820001200120090
:0C2824001201000200000008D80455005A
:1028300001000102000109022900010100C0320962
:102840000400000103010100092111010001223FE0
:1028500000070581030800010705010308000104C2
:1028600003090434034D006900630072006F0063C4
:102870000068006900700020005400650063006873
:10288000006E006F006C006F006700790020004947
:10289000006E0063002E002E034B0065007900627D
:1028A000006F006100720064002000440065006D4C
:1028B000006F0000000000000000000000000000A9
:1028C000000000000005010906A101050719E02923
:1028D000E7150025017501950881029501750881AC
:1028E00003950575010508190129059102950175E2
:1028F000039103950675081500256505071900293C
:0C290000658100C036285F2863289728F6
:04290C000201205153
:102910001F0B010801E01200245101E01200060E15
:10292000215D21E12351230A1BE0010A0CE0030A87
:102930001AE10001610517E10001480E716F280ED0
:10294000726F090E09D0000161050DE10001C50E8D
:10295000716F280E726F3F0E746F756BC00E02D0D0
:102960000001800E736F02012051600BE842E842C3
:10297000E842E842E842010801E0120021510B0A56
:1029800028E0080A1BE0090A13E0080A07E00B0A1E
:1029900025E0080A01E0120011EF14F00001B40E66
:1029A000716F000E726F010E746F756BC10E0FD0D8
:1029B0000001800E736F23C2B4F012000001B50E47
:1029C000716F000E726F010E746F756B810E736FF5
:0E29D00012000001800E736F22C2B5F01200DB
:0229DE001E0ECB
:1029E000F66E100EF76E000EF86E00010900F5503D
:1029F000A56F0900F550A66F03E1A56701D03DD092
:102A00000900F550A06F0900F550A16F0900F550BD
:102A1000A26F09000900F550E96E0900F550EA6E51
:102A2000090009000900F550A36F0900F550A46FD3
:102A300009000900F6CFA7F0F7CFA8F0F8CFA9F06A
:102A4000A0C0F6FFA1C0F7FFA2C0F8FF0001A3538A
:102A500002E1A45307E00900F550EE6EA307F8E287
:102A6000A407F9D7A7C0F6FFA8C0F7FFA9C0F8FFD1
:0C2A70000001A507000EA65BBFD71200F6
:042A7C00FE0EE3CF98
:102A8000E9FFFF0EE3CFEAFFE9CFF3FFEACFF4FF60
:102A9000FB0EE35003E1FC0EE35009E0FB0EE306FE
:102AA00002E2FC0EE306FD0EE350EE6EF1D71200DB
:102AB00011EE00F021EE00F0F86A0A9CEFEC14F041
:0C2AC00003EC08F0D7EC10F0FBD712007C
:042ACC0000EE00F028
:0A2AD0000F0EEE6AEA62FDD7120055
:020000040030CA
:0100000000FF
:0100010032CC
:0100020001FC
:010003001EDE
:0100050000FA
:0100060001F8
:0100080003F4
:01000900C036
:01000A0003F2
:01000B00E014
:01000C0003F0
:01000D0040B2
:00000001FF
